:020000040000FA
:020000000328D3
:040002000034003492
:0A00060007309F000313831600303B
:1000100086008312213086002020113086001920AE
:10002000000000000C30860020200A3086001920D5
:100030000A280230B3002D20B30B1B280000080053
:100040000A30B40000000000000000002D20B40BB6
:10005000222800000000000008003630B0003230D6
:10006000B1003C30B2000000B20B3428B10B312893
:1000700000000000000000000000B00B2F2800006E
:02008000080076
:02400E00193F58
:00000001FF
